:1000000016EF00F00000000000EF00F0000000001C
:0A0010000000000000000000F3D71C
:10001C000900F5CFE6FF0006FBE10106F9E112004D
:10002C00B4EC00F0936A956A056A066A800E0618AD
:10003C00006E800E005C02E1020E055CD8B07CD034
:10004C00076A086A800E0818006E800E005C02E1D8
:10005C00080E075C6EE2000E061802E1000E051891
:10006C002CE107C000F008C001F00036009001360A
:10007C00003600900136150E0024036E000E012090
:10008C00046E05C000F006C001F000360090013689
:10009C0000500324E96E01500420EA6EEECF02F00A
:1000AC0007C001F002C000F0015004E000360090DF
:1000BC00FF0FFBD700C08AFF2BD007C000F008C091
:1000CC0001F0003600900136003600900136150E16
:1000DC000024036E000E0120046E05C000F006C063
:1000EC0001F000360090013600500324E96E0150F7
:1000FC000420EA6EEECF02F007C001F002C000F05F
:10010C00015004E000360090FF0FFBD700C08CFFBD
:10011C00060E0B6E130E0C6EAD0E0D6E0D2EFED765
:10012C000C2EFCD70B2EFAD700000000074A082A29
:0C013C0089D7054A062A7AD777D7FFD763
:1001680010EE15F0200E006E010E016E480EF66EB0
:0E017800010EF76E000EF86E0EEC00F0120095
:1001480001000000000001000100000000000100A3
:100158000100000000000100010000000000010093
:020000040030CA
:0D000100021F1EFF8381FF0FC00FE00F40A4
:00000001FF
