:100000000EEF00F00000000000EF00F00000000024
:0A0010000000000000000000F3D71C
:10001C00956A8C6A936A026A036A800E0318006EF2
:10002C00800E005C02E1080E025C1FE2816A02C0D5
:10003C0001F0010E006E015004E000360090FF0F3D
:10004C00FBD700C08CFF060E0B6E130E0C6EAD0EA4
:10005C000D6E0D2EFED70C2EFCD70B2EFAD70000F2
:0E006C0000008C6A024A032AD8D7D5D7FFD7E6
:020000040030CA
:0D000100021F1EFF8381FF0FC00FE00F40A4
:00000001FF
