:100000000EEF00F00000000000EF00F00000000024
:0A0010000000000000000000F3D71C
:10001C00936A956A026A036A800E0318006E800E5A
:10002C00005C02E1080E025C1EE2836A02C001F071
:10003C00010E006E015004E000360090FF0FFBD75C
:10004C0000C081FF060E0B6E130E0C6EAD0E0D6E06
:10005C000D2EFED70C2EFCD70B2EFAD7000000006D
:0A006C00024A032AD9D7D6D7FFD7DE
:020000040030CA
:0D000100021F1EFF8381FF0FC00FE00F40A4
:00000001FF
