:100000000EEF00F00000000000EF00F00000000024
:0A0010000000000000000000F3D71C
:10001C00956A8A6A8C6A936A026A036A800E03186C
:10002C00006E800E005C02E1080E025C21E202C050
:10003C0001F0010E006E015004E000360090FF0F3D
:10004C00FBD700C08CFF00C08AFF060E0B6E130E90
:10005C000C6EAD0E0D6E0D2EFED70C2EFCD70B2E8E
:10006C00FAD7000000008A6A8C6A024A032AD6D7A3
:04007C00D3D7FFD700
:020000040030CA
:0D000100021F1EFF8381FF0FC00FE00F40A4
:00000001FF
